{
  "contractName": "MockOracle",
  "abi": [
    {
      "inputs": [],
      "stateMutability": "nonpayable",
      "type": "constructor"
    },
    {
      "inputs": [],
      "name": "getRoundData",
      "outputs": [
        {
          "internalType": "int256",
          "name": "",
          "type": "int256"
        }
      ],
      "stateMutability": "view",
      "type": "function",
      "constant": true
    },
    {
      "inputs": [],
      "name": "latestRoundData",
      "outputs": [
        {
          "internalType": "uint80",
          "name": "roundId",
          "type": "uint80"
        },
        {
          "internalType": "int256",
          "name": "",
          "type": "int256"
        },
        {
          "internalType": "uint256",
          "name": "startedAt",
          "type": "uint256"
        },
        {
          "internalType": "uint256",
          "name": "updatedAt",
          "type": "uint256"
        },
        {
          "internalType": "uint80",
          "name": "answeredInRound",
          "type": "uint80"
        }
      ],
      "stateMutability": "view",
      "type": "function",
      "constant": true
    }
  ],
  "bytecode": "0x608060405234801561001057600080fd5b50671bc16d674ec800006000819055506101a68061002f6000396000f3fe608060405234801561001057600080fd5b50600436106100365760003560e01c806372142a451461003b578063feaf968c14610059575b600080fd5b61004361007b565b60405161005091906100c4565b60405180910390f35b610061610084565b60405161007295949392919061011d565b60405180910390f35b60008054905090565b6000806000806000605a600054610d806205464e60ea945094509450945094509091929394565b6000819050919050565b6100be816100ab565b82525050565b60006020820190506100d960008301846100b5565b92915050565b600069ffffffffffffffffffff82169050919050565b6100fe816100df565b82525050565b6000819050919050565b61011781610104565b82525050565b600060a08201905061013260008301886100f5565b61013f60208301876100b5565b61014c604083018661010e565b610159606083018561010e565b61016660808301846100f5565b969550505050505056fea26469706673582212205f012413e6a989075a253b082134caf68f4aa2d731dbe98c7a43b9ce39986c0564736f6c634300080f0033",
  "immutableReferences": {},
  "source": "// SPDX-License-Identifier: MIT\npragma solidity ^0.8.0;\n\nimport \"./interfaces/AggregatorV3Interface.sol\";\n\ncontract MockOracle {\n\n    int256 private price;\n\n    constructor(){\n        price = 2000000000000000000;\n    }\n\n    function getRoundData()\n    external\n    view\n    returns (int256){\n        return(price);\n    }\n\n  function latestRoundData()\n    external\n    view\n    returns (\n      uint80 roundId,\n      int256 ,\n      uint256 startedAt,\n      uint256 updatedAt,\n      uint80 answeredInRound\n    ){\n        return(90,price,3456,345678,234);\n    }\n\n}",
  "sourcePath": "/home/neosoft/project/Oracle_contracts/contracts/MockOracle.sol",
  "compiler": {
    "name": "solc",
    "version": "0.8.15+commit.e14f2714.Emscripten.clang"
  },
  "schemaVersion": "3.4.8",
  "updatedAt": "2022-10-10T11:41:48.900Z",
  "networkType": "ethereum",
  "devdoc": {
    "kind": "dev",
    "methods": {},
    "version": 1
  },
  "userdoc": {
    "kind": "user",
    "methods": {},
    "version": 1
  }
}