{
  "contractName": "PriceOfEtherUSD",
  "abi": [
    {
      "inputs": [
        {
          "internalType": "address",
          "name": "AggreAddress",
          "type": "address"
        }
      ],
      "stateMutability": "nonpayable",
      "type": "constructor"
    },
    {
      "inputs": [],
      "name": "getLastestprice",
      "outputs": [
        {
          "internalType": "int256",
          "name": "",
          "type": "int256"
        }
      ],
      "stateMutability": "view",
      "type": "function",
      "constant": true
    },
    {
      "inputs": [],
      "name": "getPriceFeed",
      "outputs": [
        {
          "internalType": "contract AggregatorV3Interface",
          "name": "",
          "type": "address"
        }
      ],
      "stateMutability": "view",
      "type": "function",
      "constant": true
    }
  ],
  "bytecode": "0x608060405234801561001057600080fd5b5060405161047e38038061047e833981810160405281019061003291906100db565b806000806101000a81548173ffffffffffffffffffffffffffffffffffffffff021916908373ffffffffffffffffffffffffffffffffffffffff16021790555050610108565b600080fd5b600073ffffffffffffffffffffffffffffffffffffffff82169050919050565b60006100a88261007d565b9050919050565b6100b88161009d565b81146100c357600080fd5b50565b6000815190506100d5816100af565b92915050565b6000602082840312156100f1576100f0610078565b5b60006100ff848285016100c6565b91505092915050565b610367806101176000396000f3fe608060405234801561001057600080fd5b50600436106100365760003560e01c80639e87a5cd1461003b578063c11d5c2014610059575b600080fd5b610043610077565b60405161005091906101be565b60405180910390f35b6100616100a0565b60405161006e91906101f2565b60405180910390f35b60008060009054906101000a900473ffffffffffffffffffffffffffffffffffffffff16905090565b60008060008054906101000a900473ffffffffffffffffffffffffffffffffffffffff1673ffffffffffffffffffffffffffffffffffffffff1663feaf968c6040518163ffffffff1660e01b815260040160a060405180830381865afa15801561010e573d6000803e3d6000fd5b505050506040513d601f19601f8201168201806040525081019061013291906102b6565b5050509150508091505090565b600073ffffffffffffffffffffffffffffffffffffffff82169050919050565b6000819050919050565b600061018461017f61017a8461013f565b61015f565b61013f565b9050919050565b600061019682610169565b9050919050565b60006101a88261018b565b9050919050565b6101b88161019d565b82525050565b60006020820190506101d360008301846101af565b92915050565b6000819050919050565b6101ec816101d9565b82525050565b600060208201905061020760008301846101e3565b92915050565b600080fd5b600069ffffffffffffffffffff82169050919050565b61023181610212565b811461023c57600080fd5b50565b60008151905061024e81610228565b92915050565b61025d816101d9565b811461026857600080fd5b50565b60008151905061027a81610254565b92915050565b6000819050919050565b61029381610280565b811461029e57600080fd5b50565b6000815190506102b08161028a565b92915050565b600080600080600060a086880312156102d2576102d161020d565b5b60006102e08882890161023f565b95505060206102f18882890161026b565b9450506040610302888289016102a1565b9350506060610313888289016102a1565b92505060806103248882890161023f565b915050929550929590935056fea2646970667358221220a06f9ef009ef5242ff45229ad00153ed10e816c4cb8795f693b42b181ff2e6f164736f6c634300080f0033",
  "immutableReferences": {},
  "source": "//SPDX-License-Identifier: MIT\npragma solidity ^0.8.0;\n\nimport \"./interfaces/AggregatorV3Interface.sol\";\n\ncontract PriceOfEtherUSD {\n    AggregatorV3Interface internal priceFeed;\n\n\n    constructor(address AggreAddress){\n        priceFeed = AggregatorV3Interface(AggreAddress);\n    }\n\n    function getLastestprice() public view returns(int256){\n        (,int256 price,,,)= priceFeed.latestRoundData();\n        return price;\n    }\n\n    function getPriceFeed() public view returns (AggregatorV3Interface) {\n        return priceFeed;\n    }\n}\n",
  "sourcePath": "/home/neosoft/project/Oracle_contracts/contracts/PriceOfEtherUSD.sol",
  "compiler": {
    "name": "solc",
    "version": "0.8.15+commit.e14f2714.Emscripten.clang"
  },
  "schemaVersion": "3.4.8",
  "updatedAt": "2022-10-10T11:41:48.933Z",
  "networkType": "ethereum",
  "devdoc": {
    "kind": "dev",
    "methods": {},
    "version": 1
  },
  "userdoc": {
    "kind": "user",
    "methods": {},
    "version": 1
  }
}